{
  "_format": "hh-sol-artifact-1",
  "contractName": "Arbitrage",
  "sourceName": "contracts/Arbitrage.sol",
  "abi": [
    {
      "inputs": [
        {
          "internalType": "address",
          "name": "_faucetToken",
          "type": "address"
        },
        {
          "internalType": "uint256",
          "name": "_faucetAmount",
          "type": "uint256"
        },
        {
          "internalType": "address",
          "name": "_stakedToken",
          "type": "address"
        },
        {
          "internalType": "uint256",
          "name": "_stakeLockTime",
          "type": "uint256"
        },
        {
          "internalType": "address",
          "name": "_sushiRouter",
          "type": "address"
        },
        {
          "internalType": "address",
          "name": "_uniRouter",
          "type": "address"
        }
      ],
      "stateMutability": "nonpayable",
      "type": "constructor"
    },
    {
      "anonymous": false,
      "inputs": [
        {
          "indexed": true,
          "internalType": "address",
          "name": "_from",
          "type": "address"
        },
        {
          "indexed": false,
          "internalType": "uint256",
          "name": "amount",
          "type": "uint256"
        }
      ],
      "name": "Claimed",
      "type": "event"
    },
    {
      "anonymous": false,
      "inputs": [
        {
          "indexed": true,
          "internalType": "address",
          "name": "previousOwner",
          "type": "address"
        },
        {
          "indexed": true,
          "internalType": "address",
          "name": "newOwner",
          "type": "address"
        }
      ],
      "name": "OwnershipTransferred",
      "type": "event"
    },
    {
      "anonymous": false,
      "inputs": [
        {
          "indexed": true,
          "internalType": "address",
          "name": "_from",
          "type": "address"
        },
        {
          "indexed": false,
          "internalType": "uint256",
          "name": "amount",
          "type": "uint256"
        }
      ],
      "name": "Staked",
      "type": "event"
    },
    {
      "anonymous": false,
      "inputs": [
        {
          "indexed": true,
          "internalType": "address",
          "name": "_from",
          "type": "address"
        },
        {
          "indexed": false,
          "internalType": "uint256",
          "name": "amount",
          "type": "uint256"
        }
      ],
      "name": "Withdrawn",
      "type": "event"
    },
    {
      "inputs": [
        {
          "internalType": "address",
          "name": "",
          "type": "address"
        }
      ],
      "name": "addressInStake",
      "outputs": [
        {
          "internalType": "uint256",
          "name": "",
          "type": "uint256"
        }
      ],
      "stateMutability": "view",
      "type": "function"
    },
    {
      "inputs": [],
      "name": "claimArbitrageProfits",
      "outputs": [],
      "stateMutability": "nonpayable",
      "type": "function"
    },
    {
      "inputs": [],
      "name": "faucetAmount",
      "outputs": [
        {
          "internalType": "uint256",
          "name": "",
          "type": "uint256"
        }
      ],
      "stateMutability": "view",
      "type": "function"
    },
    {
      "inputs": [],
      "name": "faucetToken",
      "outputs": [
        {
          "internalType": "contract IFaucetToken",
          "name": "",
          "type": "address"
        }
      ],
      "stateMutability": "view",
      "type": "function"
    },
    {
      "inputs": [
        {
          "internalType": "address",
          "name": "",
          "type": "address"
        }
      ],
      "name": "hasMinted",
      "outputs": [
        {
          "internalType": "bool",
          "name": "",
          "type": "bool"
        }
      ],
      "stateMutability": "view",
      "type": "function"
    },
    {
      "inputs": [],
      "name": "owner",
      "outputs": [
        {
          "internalType": "address",
          "name": "",
          "type": "address"
        }
      ],
      "stateMutability": "view",
      "type": "function"
    },
    {
      "inputs": [
        {
          "internalType": "enum Arbitrage.Dex",
          "name": "_sellAt",
          "type": "uint8"
        },
        {
          "internalType": "address",
          "name": "_tokenToSell",
          "type": "address"
        },
        {
          "internalType": "address",
          "name": "_tokenToBuy",
          "type": "address"
        },
        {
          "internalType": "uint256",
          "name": "_amount0In",
          "type": "uint256"
        },
        {
          "internalType": "uint256",
          "name": "_amount0Out",
          "type": "uint256"
        },
        {
          "internalType": "uint256",
          "name": "_amount1In",
          "type": "uint256"
        },
        {
          "internalType": "uint256",
          "name": "_amount1Out",
          "type": "uint256"
        }
      ],
      "name": "performArbitrage",
      "outputs": [],
      "stateMutability": "nonpayable",
      "type": "function"
    },
    {
      "inputs": [],
      "name": "renounceOwnership",
      "outputs": [],
      "stateMutability": "nonpayable",
      "type": "function"
    },
    {
      "inputs": [],
      "name": "requestTokens",
      "outputs": [],
      "stateMutability": "nonpayable",
      "type": "function"
    },
    {
      "inputs": [
        {
          "internalType": "address",
          "name": "",
          "type": "address"
        }
      ],
      "name": "stakeInfos",
      "outputs": [
        {
          "internalType": "uint256",
          "name": "startTS",
          "type": "uint256"
        },
        {
          "internalType": "uint256",
          "name": "endTS",
          "type": "uint256"
        },
        {
          "internalType": "uint256",
          "name": "amount",
          "type": "uint256"
        },
        {
          "internalType": "uint256",
          "name": "profit",
          "type": "uint256"
        },
        {
          "internalType": "uint256",
          "name": "claimed",
          "type": "uint256"
        },
        {
          "internalType": "uint256",
          "name": "withdrawn",
          "type": "uint256"
        }
      ],
      "stateMutability": "view",
      "type": "function"
    },
    {
      "inputs": [],
      "name": "stakeLockTime",
      "outputs": [
        {
          "internalType": "uint256",
          "name": "",
          "type": "uint256"
        }
      ],
      "stateMutability": "view",
      "type": "function"
    },
    {
      "inputs": [
        {
          "internalType": "uint256",
          "name": "amount",
          "type": "uint256"
        }
      ],
      "name": "stakeToken",
      "outputs": [],
      "stateMutability": "nonpayable",
      "type": "function"
    },
    {
      "inputs": [],
      "name": "stakedToken",
      "outputs": [
        {
          "internalType": "contract IStakedToken",
          "name": "",
          "type": "address"
        }
      ],
      "stateMutability": "view",
      "type": "function"
    },
    {
      "inputs": [
        {
          "internalType": "uint256",
          "name": "",
          "type": "uint256"
        }
      ],
      "name": "stakers",
      "outputs": [
        {
          "internalType": "address",
          "name": "",
          "type": "address"
        }
      ],
      "stateMutability": "view",
      "type": "function"
    },
    {
      "inputs": [],
      "name": "sushiRouter",
      "outputs": [
        {
          "internalType": "contract IUniswapV2Router02",
          "name": "",
          "type": "address"
        }
      ],
      "stateMutability": "view",
      "type": "function"
    },
    {
      "inputs": [],
      "name": "totalProfits",
      "outputs": [
        {
          "internalType": "uint256",
          "name": "",
          "type": "uint256"
        }
      ],
      "stateMutability": "view",
      "type": "function"
    },
    {
      "inputs": [],
      "name": "totalStaked",
      "outputs": [
        {
          "internalType": "uint256",
          "name": "",
          "type": "uint256"
        }
      ],
      "stateMutability": "view",
      "type": "function"
    },
    {
      "inputs": [
        {
          "internalType": "address",
          "name": "newOwner",
          "type": "address"
        }
      ],
      "name": "transferOwnership",
      "outputs": [],
      "stateMutability": "nonpayable",
      "type": "function"
    },
    {
      "inputs": [],
      "name": "uniRouter",
      "outputs": [
        {
          "internalType": "contract ISwapRouter",
          "name": "",
          "type": "address"
        }
      ],
      "stateMutability": "view",
      "type": "function"
    },
    {
      "inputs": [
        {
          "internalType": "uint256",
          "name": "amount",
          "type": "uint256"
        }
      ],
      "name": "withdrawStake",
      "outputs": [],
      "stateMutability": "nonpayable",
      "type": "function"
    }
  ],
  "bytecode": "0x60c06040526040518060200160405280600073ffffffffffffffffffffffffffffffffffffffff1673ffffffffffffffffffffffffffffffffffffffff1681525060099060016200005292919062000276565b503480156200006057600080fd5b506040516200353c3803806200353c8339818101604052810190620000869190620003c9565b620000a66200009a620001aa60201b60201c565b620001b260201b60201c565b85600160006101000a81548173ffffffffffffffffffffffffffffffffffffffff021916908373ffffffffffffffffffffffffffffffffffffffff1602179055508460028190555083600360006101000a81548173ffffffffffffffffffffffffffffffffffffffff021916908373ffffffffffffffffffffffffffffffffffffffff160217905550826004819055508173ffffffffffffffffffffffffffffffffffffffff1660808173ffffffffffffffffffffffffffffffffffffffff16815250508073ffffffffffffffffffffffffffffffffffffffff1660a08173ffffffffffffffffffffffffffffffffffffffff168152505050505050505062000465565b600033905090565b60008060009054906101000a900473ffffffffffffffffffffffffffffffffffffffff169050816000806101000a81548173ffffffffffffffffffffffffffffffffffffffff021916908373ffffffffffffffffffffffffffffffffffffffff1602179055508173ffffffffffffffffffffffffffffffffffffffff168173ffffffffffffffffffffffffffffffffffffffff167f8be0079c531659141344cd1fd0a4f28419497f9722a3daafe3b4186f6b6457e060405160405180910390a35050565b828054828255906000526020600020908101928215620002f2579160200282015b82811115620002f15782518260006101000a81548173ffffffffffffffffffffffffffffffffffffffff021916908373ffffffffffffffffffffffffffffffffffffffff1602179055509160200191906001019062000297565b5b50905062000301919062000305565b5090565b5b808211156200032057600081600090555060010162000306565b5090565b600080fd5b600073ffffffffffffffffffffffffffffffffffffffff82169050919050565b6000620003568262000329565b9050919050565b620003688162000349565b81146200037457600080fd5b50565b60008151905062000388816200035d565b92915050565b6000819050919050565b620003a3816200038e565b8114620003af57600080fd5b50565b600081519050620003c38162000398565b92915050565b60008060008060008060c08789031215620003e957620003e862000324565b5b6000620003f989828a0162000377565b96505060206200040c89828a01620003b2565b95505060406200041f89828a0162000377565b94505060606200043289828a01620003b2565b93505060806200044589828a0162000377565b92505060a06200045889828a0162000377565b9150509295509295509295565b60805160a051613087620004b560003960008181610d0a0152818161184c015281816119640152611a91015260008181610c9d01528181611cba01528181611e6a0152611efd01526130876000f3fe608060405234801561001057600080fd5b50600436106100fc5760003560e01c8063246a1a451461010157806325d5971f1461011f578063359cf2b71461013b57806338e21cce146101455780635d762814146101755780636d13582c1461017f578063715018a61461019d578063817b1cd2146101a75780638da5cb5b146101c55780639c281430146101e3578063a0e47bf614610201578063b7b524a11461021f578063bd998cb31461023d578063c2ecbff11461025b578063cc7a262e14610277578063cda6b84714610295578063dfbf9def146102b1578063ed5c6605146102e6578063f2fde38b14610316578063fd5e6dd114610332575b600080fd5b610109610362565b6040516101169190611fcf565b60405180910390f35b6101396004803603810190610134919061202a565b610368565b005b6101436108cf565b005b61015f600480360381019061015a91906120b5565b610a4d565b60405161016c91906120fd565b60405180910390f35b61017d610a6d565b005b610187610c9b565b6040516101949190612177565b60405180910390f35b6101a5610cbf565b005b6101af610cd3565b6040516101bc9190611fcf565b60405180910390f35b6101cd610cd9565b6040516101da91906121a1565b60405180910390f35b6101eb610d02565b6040516101f89190611fcf565b60405180910390f35b610209610d08565b60405161021691906121dd565b60405180910390f35b610227610d2c565b6040516102349190612219565b60405180910390f35b610245610d52565b6040516102529190611fcf565b60405180910390f35b61027560048036038101906102709190612259565b610d58565b005b61027f61111c565b60405161028c919061231c565b60405180910390f35b6102af60048036038101906102aa919061202a565b611142565b005b6102cb60048036038101906102c691906120b5565b611559565b6040516102dd96959493929190612337565b60405180910390f35b61030060048036038101906102fb91906120b5565b611595565b60405161030d9190611fcf565b60405180910390f35b610330600480360381019061032b91906120b5565b6115ad565b005b61034c6004803603810190610347919061202a565b611630565b60405161035991906121a1565b60405180910390f35b60045481565b6000600a60003373ffffffffffffffffffffffffffffffffffffffff1673ffffffffffffffffffffffffffffffffffffffff16815260200190815260200160002054116103ea576040517f08c379a00000000000000000000000000000000000000000000000000000000081526004016103e19061241b565b60405180910390fd5b600860003373ffffffffffffffffffffffffffffffffffffffff1673ffffffffffffffffffffffffffffffffffffffff16815260200190815260200160002060010154421161046e576040517f08c379a0000000000000000000000000000000000000000000000000000000008152600401610465906124ad565b60405180910390fd5b600860003373ffffffffffffffffffffffffffffffffffffffff1673ffffffffffffffffffffffffffffffffffffffff16815260200190815260200160002060050154600860003373ffffffffffffffffffffffffffffffffffffffff1673ffffffffffffffffffffffffffffffffffffffff168152602001908152602001600020600201546104fe91906124fc565b811115610540576040517f08c379a0000000000000000000000000000000000000000000000000000000008152600401610537906125a2565b60405180910390fd5b600360009054906101000a900473ffffffffffffffffffffffffffffffffffffffff1673ffffffffffffffffffffffffffffffffffffffff1663a9059cbb33836040518363ffffffff1660e01b815260040161059d9291906125c2565b6020604051808303816000875af11580156105bc573d6000803e3d6000fd5b505050506040513d601f19601f820116820180604052508101906105e09190612617565b5080600860003373ffffffffffffffffffffffffffffffffffffffff1673ffffffffffffffffffffffffffffffffffffffff16815260200190815260200160002060050160008282546106339190612644565b92505081905550806005600082825461064c91906124fc565b925050819055506000600860003373ffffffffffffffffffffffffffffffffffffffff1673ffffffffffffffffffffffffffffffffffffffff16815260200190815260200160002060050154600860003373ffffffffffffffffffffffffffffffffffffffff1673ffffffffffffffffffffffffffffffffffffffff168152602001908152602001600020600201546106e591906124fc565b0361087e576000600a60003373ffffffffffffffffffffffffffffffffffffffff1673ffffffffffffffffffffffffffffffffffffffff1681526020019081526020016000205490506000600a60003373ffffffffffffffffffffffffffffffffffffffff1673ffffffffffffffffffffffffffffffffffffffff1681526020019081526020016000208190555060006001826107829190612644565b90505b60098054905081101561083a576001600a6000600984815481106107ac576107ab612678565b5b9060005260206000200160009054906101000a900473ffffffffffffffffffffffffffffffffffffffff1673ffffffffffffffffffffffffffffffffffffffff1673ffffffffffffffffffffffffffffffffffffffff168152602001908152602001600020600082825461082091906124fc565b925050819055508080610832906126a7565b915050610785565b506009818154811061084f5761084e612678565b5b9060005260206000200160006101000a81549073ffffffffffffffffffffffffffffffffffffffff0219169055505b3373ffffffffffffffffffffffffffffffffffffffff167f7084f5476618d8e60b11ef0d7d3f06914655adb8793e28ff7f018d4c76d505d5826040516108c49190611fcf565b60405180910390a250565b60001515600760003373ffffffffffffffffffffffffffffffffffffffff1673ffffffffffffffffffffffffffffffffffffffff16815260200190815260200160002060009054906101000a900460ff16151514610962576040517f08c379a000000000000000000000000000000000000000000000000000000000815260040161095990612761565b60405180910390fd5b600160009054906101000a900473ffffffffffffffffffffffffffffffffffffffff1673ffffffffffffffffffffffffffffffffffffffff166340c10f19336002546040518363ffffffff1660e01b81526004016109c19291906125c2565b600060405180830381600087803b1580156109db57600080fd5b505af11580156109ef573d6000803e3d6000fd5b505050506001600760003373ffffffffffffffffffffffffffffffffffffffff1673ffffffffffffffffffffffffffffffffffffffff16815260200190815260200160002060006101000a81548160ff021916908315150217905550565b60076020528060005260406000206000915054906101000a900460ff1681565b6000600860003373ffffffffffffffffffffffffffffffffffffffff1673ffffffffffffffffffffffffffffffffffffffff1681526020019081526020016000206003015490506000600860003373ffffffffffffffffffffffffffffffffffffffff1673ffffffffffffffffffffffffffffffffffffffff16815260200190815260200160002060040154905060008183610b0991906124fc565b905060008111610b4e576040517f08c379a0000000000000000000000000000000000000000000000000000000008152600401610b45906127f3565b60405180910390fd5b600360009054906101000a900473ffffffffffffffffffffffffffffffffffffffff1673ffffffffffffffffffffffffffffffffffffffff1663a9059cbb33836040518363ffffffff1660e01b8152600401610bab9291906125c2565b6020604051808303816000875af1158015610bca573d6000803e3d6000fd5b505050506040513d601f19601f82011682018060405250810190610bee9190612617565b5080600860003373ffffffffffffffffffffffffffffffffffffffff1673ffffffffffffffffffffffffffffffffffffffff1681526020019081526020016000206004016000828254610c419190612644565b925050819055503373ffffffffffffffffffffffffffffffffffffffff167fd8138f8a3f377c5259ca548e70e4c2de94f129f5a11036a15b69513cba2b426a82604051610c8e9190611fcf565b60405180910390a2505050565b7f000000000000000000000000000000000000000000000000000000000000000081565b610cc761166f565b610cd160006116ed565b565b60055481565b60008060009054906101000a900473ffffffffffffffffffffffffffffffffffffffff16905090565b60025481565b7f000000000000000000000000000000000000000000000000000000000000000081565b600160009054906101000a900473ffffffffffffffffffffffffffffffffffffffff1681565b60065481565b6000600360009054906101000a900473ffffffffffffffffffffffffffffffffffffffff1673ffffffffffffffffffffffffffffffffffffffff166370a08231306040518263ffffffff1660e01b8152600401610db591906121a1565b6020604051808303816000875af1158015610dd4573d6000803e3d6000fd5b505050506040513d601f19601f82011682018060405250810190610df89190612828565b905060006001811115610e0e57610e0d612855565b5b886001811115610e2157610e20612855565b5b03610e4357610e32600186866117b1565b610e3e60008484611b38565b610ec7565b600180811115610e5657610e55612855565b5b886001811115610e6957610e68612855565b5b03610e8b57610e7a60018686611b38565b610e86600084846117b1565b610ec6565b6040517f08c379a0000000000000000000000000000000000000000000000000000000008152600401610ebd906128d0565b60405180910390fd5b5b6000600360009054906101000a900473ffffffffffffffffffffffffffffffffffffffff1673ffffffffffffffffffffffffffffffffffffffff166370a08231306040518263ffffffff1660e01b8152600401610f2491906121a1565b6020604051808303816000875af1158015610f43573d6000803e3d6000fd5b505050506040513d601f19601f82011682018060405250810190610f679190612828565b905081811015610fac576040517f08c379a0000000000000000000000000000000000000000000000000000000008152600401610fa39061293c565b60405180910390fd5b60008282610fba91906124fc565b90508060066000828254610fce9190612644565b925050819055506000600190505b60098054905081101561110f576000600860006009848154811061100357611002612678565b5b9060005260206000200160009054906101000a900473ffffffffffffffffffffffffffffffffffffffff1673ffffffffffffffffffffffffffffffffffffffff1673ffffffffffffffffffffffffffffffffffffffff1681526020019081526020016000206040518060c00160405290816000820154815260200160018201548152602001600282015481526020016003820154815260200160048201548152602001600582015481525050905060008160a0015182604001516110c791906124fc565b9050600554816110d7919061298b565b846110e291906129bc565b826060018181516110f39190612644565b9150818152505050508080611107906126a7565b915050610fdc565b5050505050505050505050565b600360009054906101000a900473ffffffffffffffffffffffffffffffffffffffff1681565b60008111611185576040517f08c379a000000000000000000000000000000000000000000000000000000000815260040161117c90612a70565b60405180910390fd5b6000600a60003373ffffffffffffffffffffffffffffffffffffffff1673ffffffffffffffffffffffffffffffffffffffff1681526020019081526020016000205414611207576040517f08c379a00000000000000000000000000000000000000000000000000000000081526004016111fe90612adc565b60405180910390fd5b80600360009054906101000a900473ffffffffffffffffffffffffffffffffffffffff1673ffffffffffffffffffffffffffffffffffffffff166370a08231336040518263ffffffff1660e01b815260040161126391906121a1565b6020604051808303816000875af1158015611282573d6000803e3d6000fd5b505050506040513d601f19601f820116820180604052508101906112a69190612828565b10156112e7576040517f08c379a00000000000000000000000000000000000000000000000000000000081526004016112de90612b48565b60405180910390fd5b600360009054906101000a900473ffffffffffffffffffffffffffffffffffffffff1673ffffffffffffffffffffffffffffffffffffffff166323b872dd3330846040518463ffffffff1660e01b815260040161134693929190612b68565b6020604051808303816000875af1158015611365573d6000803e3d6000fd5b505050506040513d601f19601f820116820180604052508101906113899190612617565b50806005600082825461139c9190612644565b92505081905550600980549050600a60003373ffffffffffffffffffffffffffffffffffffffff1673ffffffffffffffffffffffffffffffffffffffff16815260200190815260200160002050506009339080600181540180825580915050600190039060005260206000200160009091909190916101000a81548173ffffffffffffffffffffffffffffffffffffffff021916908373ffffffffffffffffffffffffffffffffffffffff1602179055506040518060c001604052804281526020016004544261146c9190612644565b815260200182815260200160008152602001600081526020016000815250600860003373ffffffffffffffffffffffffffffffffffffffff1673ffffffffffffffffffffffffffffffffffffffff168152602001908152602001600020600082015181600001556020820151816001015560408201518160020155606082015181600301556080820151816004015560a082015181600501559050503373ffffffffffffffffffffffffffffffffffffffff167f9e71bc8eea02a63969f509818f2dafb9254532904319f9dbda79b67bd34a5f3d8260405161154e9190611fcf565b60405180910390a250565b60086020528060005260406000206000915090508060000154908060010154908060020154908060030154908060040154908060050154905086565b600a6020528060005260406000206000915090505481565b6115b561166f565b600073ffffffffffffffffffffffffffffffffffffffff168173ffffffffffffffffffffffffffffffffffffffff1603611624576040517f08c379a000000000000000000000000000000000000000000000000000000000815260040161161b90612c11565b60405180910390fd5b61162d816116ed565b50565b6009818154811061164057600080fd5b906000526020600020016000915054906101000a900473ffffffffffffffffffffffffffffffffffffffff1681565b611677611fae565b73ffffffffffffffffffffffffffffffffffffffff16611695610cd9565b73ffffffffffffffffffffffffffffffffffffffff16146116eb576040517f08c379a00000000000000000000000000000000000000000000000000000000081526004016116e290612c7d565b60405180910390fd5b565b60008060009054906101000a900473ffffffffffffffffffffffffffffffffffffffff169050816000806101000a81548173ffffffffffffffffffffffffffffffffffffffff021916908373ffffffffffffffffffffffffffffffffffffffff1602179055508173ffffffffffffffffffffffffffffffffffffffff168173ffffffffffffffffffffffffffffffffffffffff167f8be0079c531659141344cd1fd0a4f28419497f9722a3daafe3b4186f6b6457e060405160405180910390a35050565b600081905060008080600087036118d257600160009054906101000a900473ffffffffffffffffffffffffffffffffffffffff169150600360009054906101000a900473ffffffffffffffffffffffffffffffffffffffff169050600160009054906101000a900473ffffffffffffffffffffffffffffffffffffffff1673ffffffffffffffffffffffffffffffffffffffff1663095ea7b37f0000000000000000000000000000000000000000000000000000000000000000886040518363ffffffff1660e01b81526004016118899291906125c2565b6020604051808303816000875af11580156118a8573d6000803e3d6000fd5b505050506040513d601f19601f820116820180604052508101906118cc9190612617565b506119f0565b600187036119ea57600360009054906101000a900473ffffffffffffffffffffffffffffffffffffffff169150600160009054906101000a900473ffffffffffffffffffffffffffffffffffffffff169050600360009054906101000a900473ffffffffffffffffffffffffffffffffffffffff1673ffffffffffffffffffffffffffffffffffffffff1663095ea7b37f0000000000000000000000000000000000000000000000000000000000000000886040518363ffffffff1660e01b81526004016119a19291906125c2565b6020604051808303816000875af11580156119c0573d6000803e3d6000fd5b505050506040513d601f19601f820116820180604052508101906119e49190612617565b506119ef565b600080fd5b5b60006040518061010001604052808473ffffffffffffffffffffffffffffffffffffffff1681526020018373ffffffffffffffffffffffffffffffffffffffff168152602001610bb862ffffff1681526020013073ffffffffffffffffffffffffffffffffffffffff1681526020014281526020018881526020018681526020018573ffffffffffffffffffffffffffffffffffffffff16815250905060007f000000000000000000000000000000000000000000000000000000000000000073ffffffffffffffffffffffffffffffffffffffff1663414bf389836040518263ffffffff1660e01b8152600401611ae89190612d8a565b6020604051808303816000875af1158015611b07573d6000803e3d6000fd5b505050506040513d601f19601f82011682018060405250810190611b2b9190612828565b9050505050505050505050565b6000600267ffffffffffffffff811115611b5557611b54612da6565b5b604051908082528060200260200182016040528015611b835781602001602082028036833780820191505090505b5090506000839050600083905060008603611d4057600160009054906101000a900473ffffffffffffffffffffffffffffffffffffffff1683600081518110611bcf57611bce612678565b5b602002602001019073ffffffffffffffffffffffffffffffffffffffff16908173ffffffffffffffffffffffffffffffffffffffff1681525050600360009054906101000a900473ffffffffffffffffffffffffffffffffffffffff1683600181518110611c4057611c3f612678565b5b602002602001019073ffffffffffffffffffffffffffffffffffffffff16908173ffffffffffffffffffffffffffffffffffffffff1681525050600160009054906101000a900473ffffffffffffffffffffffffffffffffffffffff1673ffffffffffffffffffffffffffffffffffffffff1663095ea7b37f0000000000000000000000000000000000000000000000000000000000000000846040518363ffffffff1660e01b8152600401611cf79291906125c2565b6020604051808303816000875af1158015611d16573d6000803e3d6000fd5b505050506040513d601f19601f82011682018060405250810190611d3a9190612617565b50611ef6565b60018603611ef057600360009054906101000a900473ffffffffffffffffffffffffffffffffffffffff1683600081518110611d7f57611d7e612678565b5b602002602001019073ffffffffffffffffffffffffffffffffffffffff16908173ffffffffffffffffffffffffffffffffffffffff1681525050600160009054906101000a900473ffffffffffffffffffffffffffffffffffffffff1683600181518110611df057611def612678565b5b602002602001019073ffffffffffffffffffffffffffffffffffffffff16908173ffffffffffffffffffffffffffffffffffffffff1681525050600360009054906101000a900473ffffffffffffffffffffffffffffffffffffffff1673ffffffffffffffffffffffffffffffffffffffff1663095ea7b37f0000000000000000000000000000000000000000000000000000000000000000846040518363ffffffff1660e01b8152600401611ea79291906125c2565b6020604051808303816000875af1158015611ec6573d6000803e3d6000fd5b505050506040513d601f19601f82011682018060405250810190611eea9190612617565b50611ef5565b600080fd5b5b60004290507f000000000000000000000000000000000000000000000000000000000000000073ffffffffffffffffffffffffffffffffffffffff166338ed173984848730866040518663ffffffff1660e01b8152600401611f5c959493929190612e84565b6000604051808303816000875af1158015611f7b573d6000803e3d6000fd5b505050506040513d6000823e3d601f19601f82011682018060405250810190611fa49190613008565b5050505050505050565b600033905090565b6000819050919050565b611fc981611fb6565b82525050565b6000602082019050611fe46000830184611fc0565b92915050565b6000604051905090565b600080fd5b600080fd5b61200781611fb6565b811461201257600080fd5b50565b60008135905061202481611ffe565b92915050565b6000602082840312156120405761203f611ff4565b5b600061204e84828501612015565b91505092915050565b600073ffffffffffffffffffffffffffffffffffffffff82169050919050565b600061208282612057565b9050919050565b61209281612077565b811461209d57600080fd5b50565b6000813590506120af81612089565b92915050565b6000602082840312156120cb576120ca611ff4565b5b60006120d9848285016120a0565b91505092915050565b60008115159050919050565b6120f7816120e2565b82525050565b600060208201905061211260008301846120ee565b92915050565b6000819050919050565b600061213d61213861213384612057565b612118565b612057565b9050919050565b600061214f82612122565b9050919050565b600061216182612144565b9050919050565b61217181612156565b82525050565b600060208201905061218c6000830184612168565b92915050565b61219b81612077565b82525050565b60006020820190506121b66000830184612192565b92915050565b60006121c782612144565b9050919050565b6121d7816121bc565b82525050565b60006020820190506121f260008301846121ce565b92915050565b600061220382612144565b9050919050565b612213816121f8565b82525050565b600060208201905061222e600083018461220a565b92915050565b6002811061224157600080fd5b50565b60008135905061225381612234565b92915050565b600080600080600080600060e0888a03121561227857612277611ff4565b5b60006122868a828b01612244565b97505060206122978a828b016120a0565b96505060406122a88a828b016120a0565b95505060606122b98a828b01612015565b94505060806122ca8a828b01612015565b93505060a06122db8a828b01612015565b92505060c06122ec8a828b01612015565b91505092959891949750929550565b600061230682612144565b9050919050565b612316816122fb565b82525050565b6000602082019050612331600083018461230d565b92915050565b600060c08201905061234c6000830189611fc0565b6123596020830188611fc0565b6123666040830187611fc0565b6123736060830186611fc0565b6123806080830185611fc0565b61238d60a0830184611fc0565b979650505050505050565b600082825260208201905092915050565b7f596f7520646f6e2774206861766520616e79207374616b656420746f6b656e7360008201527f2e00000000000000000000000000000000000000000000000000000000000000602082015250565b6000612405602183612398565b9150612410826123a9565b604082019050919050565b60006020820190508181036000830152612434816123f8565b9050919050565b7f596f752063616e6e6f742079657420776974686472617720796f75722073746160008201527f6b656420746f6b656e732e000000000000000000000000000000000000000000602082015250565b6000612497602b83612398565b91506124a28261243b565b604082019050919050565b600060208201905081810360008301526124c68161248a565b9050919050565b7f4e487b7100000000000000000000000000000000000000000000000000000000600052601160045260246000fd5b600061250782611fb6565b915061251283611fb6565b925082820390508181111561252a576125296124cd565b5b92915050565b7f596f752061726520747279696e6720746f207769746864726177206d6f72652060008201527f7468616e20796f752068617665207374616b65642e0000000000000000000000602082015250565b600061258c603583612398565b915061259782612530565b604082019050919050565b600060208201905081810360008301526125bb8161257f565b9050919050565b60006040820190506125d76000830185612192565b6125e46020830184611fc0565b9392505050565b6125f4816120e2565b81146125ff57600080fd5b50565b600081519050612611816125eb565b92915050565b60006020828403121561262d5761262c611ff4565b5b600061263b84828501612602565b91505092915050565b600061264f82611fb6565b915061265a83611fb6565b9250828201905080821115612672576126716124cd565b5b92915050565b7f4e487b7100000000000000000000000000000000000000000000000000000000600052603260045260246000fd5b60006126b282611fb6565b91507fffffffffffffffffffffffffffffffffffffffffffffffffffffffffffffffff82036126e4576126e36124cd565b5b600182019050919050565b7f596f75206861766520616c726561647920636c61696d6564207468652066617560008201527f6365742e00000000000000000000000000000000000000000000000000000000602082015250565b600061274b602483612398565b9150612756826126ef565b604082019050919050565b6000602082019050818103600083015261277a8161273e565b9050919050565b7f596f7520646f6e2774206861766520616e792070726f6669747320746f20636c60008201527f61696d2e00000000000000000000000000000000000000000000000000000000602082015250565b60006127dd602483612398565b91506127e882612781565b604082019050919050565b6000602082019050818103600083015261280c816127d0565b9050919050565b60008151905061282281611ffe565b92915050565b60006020828403121561283e5761283d611ff4565b5b600061284c84828501612813565b91505092915050565b7f4e487b7100000000000000000000000000000000000000000000000000000000600052602160045260246000fd5b7f444558206e6f74207265636f676e697a65640000000000000000000000000000600082015250565b60006128ba601283612398565b91506128c582612884565b602082019050919050565b600060208201905081810360008301526128e9816128ad565b9050919050565b7f4e6f7420656e6f7567682070726f666974730000000000000000000000000000600082015250565b6000612926601283612398565b9150612931826128f0565b602082019050919050565b6000602082019050818103600083015261295581612919565b9050919050565b7f4e487b7100000000000000000000000000000000000000000000000000000000600052601260045260246000fd5b600061299682611fb6565b91506129a183611fb6565b9250826129b1576129b061295c565b5b828204905092915050565b60006129c782611fb6565b91506129d283611fb6565b92508282026129e081611fb6565b915082820484148315176129f7576129f66124cd565b5b5092915050565b7f5374616b6520616d6f756e742073686f756c64206265206d6f7265207468616e60008201527f207a65726f000000000000000000000000000000000000000000000000000000602082015250565b6000612a5a602583612398565b9150612a65826129fe565b604082019050919050565b60006020820190508181036000830152612a8981612a4d565b9050919050565b7f596f75206861766520616c7265616479207374616b656420746f6b656e730000600082015250565b6000612ac6601e83612398565b9150612ad182612a90565b602082019050919050565b60006020820190508181036000830152612af581612ab9565b9050919050565b7f496e73756666696369656e742062616c616e6365000000000000000000000000600082015250565b6000612b32601483612398565b9150612b3d82612afc565b602082019050919050565b60006020820190508181036000830152612b6181612b25565b9050919050565b6000606082019050612b7d6000830186612192565b612b8a6020830185612192565b612b976040830184611fc0565b949350505050565b7f4f776e61626c653a206e6577206f776e657220697320746865207a65726f206160008201527f6464726573730000000000000000000000000000000000000000000000000000602082015250565b6000612bfb602683612398565b9150612c0682612b9f565b604082019050919050565b60006020820190508181036000830152612c2a81612bee565b9050919050565b7f4f776e61626c653a2063616c6c6572206973206e6f7420746865206f776e6572600082015250565b6000612c67602083612398565b9150612c7282612c31565b602082019050919050565b60006020820190508181036000830152612c9681612c5a565b9050919050565b612ca681612077565b82525050565b600062ffffff82169050919050565b612cc481612cac565b82525050565b612cd381611fb6565b82525050565b612ce281612057565b82525050565b61010082016000820151612cff6000850182612c9d565b506020820151612d126020850182612c9d565b506040820151612d256040850182612cbb565b506060820151612d386060850182612c9d565b506080820151612d4b6080850182612cca565b5060a0820151612d5e60a0850182612cca565b5060c0820151612d7160c0850182612cca565b5060e0820151612d8460e0850182612cd9565b50505050565b600061010082019050612da06000830184612ce8565b92915050565b7f4e487b7100000000000000000000000000000000000000000000000000000000600052604160045260246000fd5b600081519050919050565b600082825260208201905092915050565b6000819050602082019050919050565b6000612e0d8383612c9d565b60208301905092915050565b6000602082019050919050565b6000612e3182612dd5565b612e3b8185612de0565b9350612e4683612df1565b8060005b83811015612e77578151612e5e8882612e01565b9750612e6983612e19565b925050600181019050612e4a565b5085935050505092915050565b600060a082019050612e996000830188611fc0565b612ea66020830187611fc0565b8181036040830152612eb88186612e26565b9050612ec76060830185612192565b612ed46080830184611fc0565b9695505050505050565b600080fd5b6000601f19601f8301169050919050565b612efd82612ee3565b810181811067ffffffffffffffff82111715612f1c57612f1b612da6565b5b80604052505050565b6000612f2f611fea565b9050612f3b8282612ef4565b919050565b600067ffffffffffffffff821115612f5b57612f5a612da6565b5b602082029050602081019050919050565b600080fd5b6000612f84612f7f84612f40565b612f25565b90508083825260208201905060208402830185811115612fa757612fa6612f6c565b5b835b81811015612fd05780612fbc8882612813565b845260208401935050602081019050612fa9565b5050509392505050565b600082601f830112612fef57612fee612ede565b5b8151612fff848260208601612f71565b91505092915050565b60006020828403121561301e5761301d611ff4565b5b600082015167ffffffffffffffff81111561303c5761303b611ff9565b5b61304884828501612fda565b9150509291505056fea2646970667358221220fae5510adcc654e16bbdbc6013e36d15f012e8ce1b6efc3b6d1bae74da903f6d64736f6c63430008110033",
  "linkReferences": {},
  "deployedLinkReferences": {}
}