{
  "_format": "hh-sol-artifact-1",
  "contractName": "Arbitrage",
  "sourceName": "contracts/Arbitrage.sol",
  "abi": [
    {
      "inputs": [
        {
          "internalType": "address",
          "name": "_faucetToken",
          "type": "address"
        },
        {
          "internalType": "uint256",
          "name": "_faucetAmount",
          "type": "uint256"
        },
        {
          "internalType": "address",
          "name": "_stakedToken",
          "type": "address"
        },
        {
          "internalType": "uint256",
          "name": "_stakeLockTime",
          "type": "uint256"
        },
        {
          "internalType": "address",
          "name": "_sushiRouter",
          "type": "address"
        },
        {
          "internalType": "address",
          "name": "_uniRouter",
          "type": "address"
        }
      ],
      "stateMutability": "nonpayable",
      "type": "constructor"
    },
    {
      "anonymous": false,
      "inputs": [
        {
          "indexed": true,
          "internalType": "address",
          "name": "_from",
          "type": "address"
        },
        {
          "indexed": false,
          "internalType": "uint256",
          "name": "amount",
          "type": "uint256"
        }
      ],
      "name": "Claimed",
      "type": "event"
    },
    {
      "anonymous": false,
      "inputs": [
        {
          "indexed": true,
          "internalType": "address",
          "name": "previousOwner",
          "type": "address"
        },
        {
          "indexed": true,
          "internalType": "address",
          "name": "newOwner",
          "type": "address"
        }
      ],
      "name": "OwnershipTransferred",
      "type": "event"
    },
    {
      "anonymous": false,
      "inputs": [
        {
          "indexed": true,
          "internalType": "address",
          "name": "_from",
          "type": "address"
        },
        {
          "indexed": false,
          "internalType": "uint256",
          "name": "amount",
          "type": "uint256"
        }
      ],
      "name": "Staked",
      "type": "event"
    },
    {
      "anonymous": false,
      "inputs": [
        {
          "indexed": true,
          "internalType": "address",
          "name": "_from",
          "type": "address"
        },
        {
          "indexed": false,
          "internalType": "uint256",
          "name": "amount",
          "type": "uint256"
        }
      ],
      "name": "Withdrawn",
      "type": "event"
    },
    {
      "inputs": [
        {
          "internalType": "address",
          "name": "",
          "type": "address"
        }
      ],
      "name": "addressInStake",
      "outputs": [
        {
          "internalType": "uint256",
          "name": "",
          "type": "uint256"
        }
      ],
      "stateMutability": "view",
      "type": "function"
    },
    {
      "inputs": [],
      "name": "claimArbitrageProfits",
      "outputs": [],
      "stateMutability": "nonpayable",
      "type": "function"
    },
    {
      "inputs": [],
      "name": "faucetAmount",
      "outputs": [
        {
          "internalType": "uint256",
          "name": "",
          "type": "uint256"
        }
      ],
      "stateMutability": "view",
      "type": "function"
    },
    {
      "inputs": [],
      "name": "faucetToken",
      "outputs": [
        {
          "internalType": "contract IFaucetToken",
          "name": "",
          "type": "address"
        }
      ],
      "stateMutability": "view",
      "type": "function"
    },
    {
      "inputs": [
        {
          "internalType": "address",
          "name": "",
          "type": "address"
        }
      ],
      "name": "hasMinted",
      "outputs": [
        {
          "internalType": "bool",
          "name": "",
          "type": "bool"
        }
      ],
      "stateMutability": "view",
      "type": "function"
    },
    {
      "inputs": [],
      "name": "owner",
      "outputs": [
        {
          "internalType": "address",
          "name": "",
          "type": "address"
        }
      ],
      "stateMutability": "view",
      "type": "function"
    },
    {
      "inputs": [
        {
          "internalType": "enum Arbitrage.Dex",
          "name": "_sellAt",
          "type": "uint8"
        },
        {
          "internalType": "address",
          "name": "_tokenToSell",
          "type": "address"
        },
        {
          "internalType": "address",
          "name": "_tokenToBuy",
          "type": "address"
        },
        {
          "internalType": "uint256",
          "name": "_amount0In",
          "type": "uint256"
        },
        {
          "internalType": "uint256",
          "name": "_amount0Out",
          "type": "uint256"
        },
        {
          "internalType": "uint256",
          "name": "_amount1In",
          "type": "uint256"
        },
        {
          "internalType": "uint256",
          "name": "_amount1Out",
          "type": "uint256"
        }
      ],
      "name": "performArbitrage",
      "outputs": [],
      "stateMutability": "nonpayable",
      "type": "function"
    },
    {
      "inputs": [],
      "name": "renounceOwnership",
      "outputs": [],
      "stateMutability": "nonpayable",
      "type": "function"
    },
    {
      "inputs": [],
      "name": "requestTokens",
      "outputs": [],
      "stateMutability": "nonpayable",
      "type": "function"
    },
    {
      "inputs": [
        {
          "internalType": "address",
          "name": "",
          "type": "address"
        }
      ],
      "name": "stakeInfos",
      "outputs": [
        {
          "internalType": "uint256",
          "name": "startTS",
          "type": "uint256"
        },
        {
          "internalType": "uint256",
          "name": "endTS",
          "type": "uint256"
        },
        {
          "internalType": "uint256",
          "name": "amount",
          "type": "uint256"
        },
        {
          "internalType": "uint256",
          "name": "profit",
          "type": "uint256"
        },
        {
          "internalType": "uint256",
          "name": "claimed",
          "type": "uint256"
        },
        {
          "internalType": "uint256",
          "name": "withdrawn",
          "type": "uint256"
        }
      ],
      "stateMutability": "view",
      "type": "function"
    },
    {
      "inputs": [],
      "name": "stakeLockTime",
      "outputs": [
        {
          "internalType": "uint256",
          "name": "",
          "type": "uint256"
        }
      ],
      "stateMutability": "view",
      "type": "function"
    },
    {
      "inputs": [
        {
          "internalType": "uint256",
          "name": "amount",
          "type": "uint256"
        }
      ],
      "name": "stakeToken",
      "outputs": [],
      "stateMutability": "nonpayable",
      "type": "function"
    },
    {
      "inputs": [],
      "name": "stakedToken",
      "outputs": [
        {
          "internalType": "contract IStakedToken",
          "name": "",
          "type": "address"
        }
      ],
      "stateMutability": "view",
      "type": "function"
    },
    {
      "inputs": [
        {
          "internalType": "uint256",
          "name": "",
          "type": "uint256"
        }
      ],
      "name": "stakers",
      "outputs": [
        {
          "internalType": "address",
          "name": "",
          "type": "address"
        }
      ],
      "stateMutability": "view",
      "type": "function"
    },
    {
      "inputs": [],
      "name": "sushiRouter",
      "outputs": [
        {
          "internalType": "contract IUniswapV2Router02",
          "name": "",
          "type": "address"
        }
      ],
      "stateMutability": "view",
      "type": "function"
    },
    {
      "inputs": [],
      "name": "totalProfits",
      "outputs": [
        {
          "internalType": "uint256",
          "name": "",
          "type": "uint256"
        }
      ],
      "stateMutability": "view",
      "type": "function"
    },
    {
      "inputs": [],
      "name": "totalStaked",
      "outputs": [
        {
          "internalType": "uint256",
          "name": "",
          "type": "uint256"
        }
      ],
      "stateMutability": "view",
      "type": "function"
    },
    {
      "inputs": [
        {
          "internalType": "address",
          "name": "newOwner",
          "type": "address"
        }
      ],
      "name": "transferOwnership",
      "outputs": [],
      "stateMutability": "nonpayable",
      "type": "function"
    },
    {
      "inputs": [],
      "name": "uniRouter",
      "outputs": [
        {
          "internalType": "contract ISwapRouter",
          "name": "",
          "type": "address"
        }
      ],
      "stateMutability": "view",
      "type": "function"
    },
    {
      "inputs": [
        {
          "internalType": "uint256",
          "name": "amount",
          "type": "uint256"
        }
      ],
      "name": "withdrawStake",
      "outputs": [],
      "stateMutability": "nonpayable",
      "type": "function"
    }
  ],
  "bytecode": "0x60c06040526040518060200160405280600073ffffffffffffffffffffffffffffffffffffffff1673ffffffffffffffffffffffffffffffffffffffff1681525060099060016200005292919062000276565b503480156200006057600080fd5b5060405162003609380380620036098339818101604052810190620000869190620003c9565b620000a66200009a620001aa60201b60201c565b620001b260201b60201c565b85600160006101000a81548173ffffffffffffffffffffffffffffffffffffffff021916908373ffffffffffffffffffffffffffffffffffffffff1602179055508460028190555083600360006101000a81548173ffffffffffffffffffffffffffffffffffffffff021916908373ffffffffffffffffffffffffffffffffffffffff160217905550826004819055508173ffffffffffffffffffffffffffffffffffffffff1660808173ffffffffffffffffffffffffffffffffffffffff16815250508073ffffffffffffffffffffffffffffffffffffffff1660a08173ffffffffffffffffffffffffffffffffffffffff168152505050505050505062000465565b600033905090565b60008060009054906101000a900473ffffffffffffffffffffffffffffffffffffffff169050816000806101000a81548173ffffffffffffffffffffffffffffffffffffffff021916908373ffffffffffffffffffffffffffffffffffffffff1602179055508173ffffffffffffffffffffffffffffffffffffffff168173ffffffffffffffffffffffffffffffffffffffff167f8be0079c531659141344cd1fd0a4f28419497f9722a3daafe3b4186f6b6457e060405160405180910390a35050565b828054828255906000526020600020908101928215620002f2579160200282015b82811115620002f15782518260006101000a81548173ffffffffffffffffffffffffffffffffffffffff021916908373ffffffffffffffffffffffffffffffffffffffff1602179055509160200191906001019062000297565b5b50905062000301919062000305565b5090565b5b808211156200032057600081600090555060010162000306565b5090565b600080fd5b600073ffffffffffffffffffffffffffffffffffffffff82169050919050565b6000620003568262000329565b9050919050565b620003688162000349565b81146200037457600080fd5b50565b60008151905062000388816200035d565b92915050565b6000819050919050565b620003a3816200038e565b8114620003af57600080fd5b50565b600081519050620003c38162000398565b92915050565b60008060008060008060c08789031215620003e957620003e862000324565b5b6000620003f989828a0162000377565b96505060206200040c89828a01620003b2565b95505060406200041f89828a0162000377565b94505060606200043289828a01620003b2565b93505060806200044589828a0162000377565b92505060a06200045889828a0162000377565b9150509295509295509295565b60805160a051613154620004b560003960008181610d0a0152818161191901528181611a310152611b5e015260008181610c9d01528181611d8701528181611f370152611fca01526131546000f3fe608060405234801561001057600080fd5b50600436106100fc5760003560e01c8063246a1a451461010157806325d5971f1461011f578063359cf2b71461013b57806338e21cce146101455780635d762814146101755780636d13582c1461017f578063715018a61461019d578063817b1cd2146101a75780638da5cb5b146101c55780639c281430146101e3578063a0e47bf614610201578063b7b524a11461021f578063bd998cb31461023d578063c2ecbff11461025b578063cc7a262e14610277578063cda6b84714610295578063dfbf9def146102b1578063ed5c6605146102e6578063f2fde38b14610316578063fd5e6dd114610332575b600080fd5b610109610362565b604051610116919061209c565b60405180910390f35b610139600480360381019061013491906120f7565b610368565b005b6101436108cf565b005b61015f600480360381019061015a9190612182565b610a4d565b60405161016c91906121ca565b60405180910390f35b61017d610a6d565b005b610187610c9b565b6040516101949190612244565b60405180910390f35b6101a5610cbf565b005b6101af610cd3565b6040516101bc919061209c565b60405180910390f35b6101cd610cd9565b6040516101da919061226e565b60405180910390f35b6101eb610d02565b6040516101f8919061209c565b60405180910390f35b610209610d08565b60405161021691906122aa565b60405180910390f35b610227610d2c565b60405161023491906122e6565b60405180910390f35b610245610d52565b604051610252919061209c565b60405180910390f35b61027560048036038101906102709190612326565b610d58565b005b61027f6110d7565b60405161028c91906123e9565b60405180910390f35b6102af60048036038101906102aa91906120f7565b6110fd565b005b6102cb60048036038101906102c69190612182565b611626565b6040516102dd96959493929190612404565b60405180910390f35b61030060048036038101906102fb9190612182565b611662565b60405161030d919061209c565b60405180910390f35b610330600480360381019061032b9190612182565b61167a565b005b61034c600480360381019061034791906120f7565b6116fd565b604051610359919061226e565b60405180910390f35b60045481565b6000600a60003373ffffffffffffffffffffffffffffffffffffffff1673ffffffffffffffffffffffffffffffffffffffff16815260200190815260200160002054116103ea576040517f08c379a00000000000000000000000000000000000000000000000000000000081526004016103e1906124e8565b60405180910390fd5b600860003373ffffffffffffffffffffffffffffffffffffffff1673ffffffffffffffffffffffffffffffffffffffff16815260200190815260200160002060010154421161046e576040517f08c379a00000000000000000000000000000000000000000000000000000000081526004016104659061257a565b60405180910390fd5b600860003373ffffffffffffffffffffffffffffffffffffffff1673ffffffffffffffffffffffffffffffffffffffff16815260200190815260200160002060050154600860003373ffffffffffffffffffffffffffffffffffffffff1673ffffffffffffffffffffffffffffffffffffffff168152602001908152602001600020600201546104fe91906125c9565b811115610540576040517f08c379a00000000000000000000000000000000000000000000000000000000081526004016105379061266f565b60405180910390fd5b600360009054906101000a900473ffffffffffffffffffffffffffffffffffffffff1673ffffffffffffffffffffffffffffffffffffffff1663a9059cbb33836040518363ffffffff1660e01b815260040161059d92919061268f565b6020604051808303816000875af11580156105bc573d6000803e3d6000fd5b505050506040513d601f19601f820116820180604052508101906105e091906126e4565b5080600860003373ffffffffffffffffffffffffffffffffffffffff1673ffffffffffffffffffffffffffffffffffffffff16815260200190815260200160002060050160008282546106339190612711565b92505081905550806005600082825461064c91906125c9565b925050819055506000600860003373ffffffffffffffffffffffffffffffffffffffff1673ffffffffffffffffffffffffffffffffffffffff16815260200190815260200160002060050154600860003373ffffffffffffffffffffffffffffffffffffffff1673ffffffffffffffffffffffffffffffffffffffff168152602001908152602001600020600201546106e591906125c9565b0361087e576000600a60003373ffffffffffffffffffffffffffffffffffffffff1673ffffffffffffffffffffffffffffffffffffffff1681526020019081526020016000205490506000600a60003373ffffffffffffffffffffffffffffffffffffffff1673ffffffffffffffffffffffffffffffffffffffff1681526020019081526020016000208190555060006001826107829190612711565b90505b60098054905081101561083a576001600a6000600984815481106107ac576107ab612745565b5b9060005260206000200160009054906101000a900473ffffffffffffffffffffffffffffffffffffffff1673ffffffffffffffffffffffffffffffffffffffff1673ffffffffffffffffffffffffffffffffffffffff168152602001908152602001600020600082825461082091906125c9565b92505081905550808061083290612774565b915050610785565b506009818154811061084f5761084e612745565b5b9060005260206000200160006101000a81549073ffffffffffffffffffffffffffffffffffffffff0219169055505b3373ffffffffffffffffffffffffffffffffffffffff167f7084f5476618d8e60b11ef0d7d3f06914655adb8793e28ff7f018d4c76d505d5826040516108c4919061209c565b60405180910390a250565b60001515600760003373ffffffffffffffffffffffffffffffffffffffff1673ffffffffffffffffffffffffffffffffffffffff16815260200190815260200160002060009054906101000a900460ff16151514610962576040517f08c379a00000000000000000000000000000000000000000000000000000000081526004016109599061282e565b60405180910390fd5b600160009054906101000a900473ffffffffffffffffffffffffffffffffffffffff1673ffffffffffffffffffffffffffffffffffffffff166340c10f19336002546040518363ffffffff1660e01b81526004016109c192919061268f565b600060405180830381600087803b1580156109db57600080fd5b505af11580156109ef573d6000803e3d6000fd5b505050506001600760003373ffffffffffffffffffffffffffffffffffffffff1673ffffffffffffffffffffffffffffffffffffffff16815260200190815260200160002060006101000a81548160ff021916908315150217905550565b60076020528060005260406000206000915054906101000a900460ff1681565b6000600860003373ffffffffffffffffffffffffffffffffffffffff1673ffffffffffffffffffffffffffffffffffffffff1681526020019081526020016000206003015490506000600860003373ffffffffffffffffffffffffffffffffffffffff1673ffffffffffffffffffffffffffffffffffffffff16815260200190815260200160002060040154905060008183610b0991906125c9565b905060008111610b4e576040517f08c379a0000000000000000000000000000000000000000000000000000000008152600401610b45906128c0565b60405180910390fd5b600360009054906101000a900473ffffffffffffffffffffffffffffffffffffffff1673ffffffffffffffffffffffffffffffffffffffff1663a9059cbb33836040518363ffffffff1660e01b8152600401610bab92919061268f565b6020604051808303816000875af1158015610bca573d6000803e3d6000fd5b505050506040513d601f19601f82011682018060405250810190610bee91906126e4565b5080600860003373ffffffffffffffffffffffffffffffffffffffff1673ffffffffffffffffffffffffffffffffffffffff1681526020019081526020016000206004016000828254610c419190612711565b925050819055503373ffffffffffffffffffffffffffffffffffffffff167fd8138f8a3f377c5259ca548e70e4c2de94f129f5a11036a15b69513cba2b426a82604051610c8e919061209c565b60405180910390a2505050565b7f000000000000000000000000000000000000000000000000000000000000000081565b610cc761173c565b610cd160006117ba565b565b60055481565b60008060009054906101000a900473ffffffffffffffffffffffffffffffffffffffff16905090565b60025481565b7f000000000000000000000000000000000000000000000000000000000000000081565b600160009054906101000a900473ffffffffffffffffffffffffffffffffffffffff1681565b60065481565b6000600360009054906101000a900473ffffffffffffffffffffffffffffffffffffffff1673ffffffffffffffffffffffffffffffffffffffff166370a08231306040518263ffffffff1660e01b8152600401610db5919061226e565b6020604051808303816000875af1158015610dd4573d6000803e3d6000fd5b505050506040513d601f19601f82011682018060405250810190610df891906128f5565b905060006001811115610e0e57610e0d612922565b5b886001811115610e2157610e20612922565b5b03610e4357610e326001868661187e565b610e3e60008484611c05565b610ec7565b600180811115610e5657610e55612922565b5b886001811115610e6957610e68612922565b5b03610e8b57610e7a60018686611c05565b610e866000848461187e565b610ec6565b6040517f08c379a0000000000000000000000000000000000000000000000000000000008152600401610ebd9061299d565b60405180910390fd5b5b6000600360009054906101000a900473ffffffffffffffffffffffffffffffffffffffff1673ffffffffffffffffffffffffffffffffffffffff166370a08231306040518263ffffffff1660e01b8152600401610f24919061226e565b6020604051808303816000875af1158015610f43573d6000803e3d6000fd5b505050506040513d601f19601f82011682018060405250810190610f6791906128f5565b905081811015610fac576040517f08c379a0000000000000000000000000000000000000000000000000000000008152600401610fa390612a09565b60405180910390fd5b60008282610fba91906125c9565b90508060066000828254610fce9190612711565b925050819055506000600190505b6009805490508110156110ca576000600860006009848154811061100357611002612745565b5b9060005260206000200160009054906101000a900473ffffffffffffffffffffffffffffffffffffffff1673ffffffffffffffffffffffffffffffffffffffff1673ffffffffffffffffffffffffffffffffffffffff168152602001908152602001600020905060008160050154826002015461108091906125c9565b9050600554816110909190612a58565b8461109b9190612a89565b8260030160008282546110ae9190612711565b92505081905550505080806110c290612774565b915050610fdc565b5050505050505050505050565b600360009054906101000a900473ffffffffffffffffffffffffffffffffffffffff1681565b60008111611140576040517f08c379a000000000000000000000000000000000000000000000000000000000815260040161113790612b3d565b60405180910390fd5b6000600a60003373ffffffffffffffffffffffffffffffffffffffff1673ffffffffffffffffffffffffffffffffffffffff16815260200190815260200160002054146111c2576040517f08c379a00000000000000000000000000000000000000000000000000000000081526004016111b990612ba9565b60405180910390fd5b80600360009054906101000a900473ffffffffffffffffffffffffffffffffffffffff1673ffffffffffffffffffffffffffffffffffffffff166370a08231336040518263ffffffff1660e01b815260040161121e919061226e565b6020604051808303816000875af115801561123d573d6000803e3d6000fd5b505050506040513d601f19601f8201168201806040525081019061126191906128f5565b10156112a2576040517f08c379a000000000000000000000000000000000000000000000000000000000815260040161129990612c15565b60405180910390fd5b600360009054906101000a900473ffffffffffffffffffffffffffffffffffffffff1673ffffffffffffffffffffffffffffffffffffffff166323b872dd3330846040518463ffffffff1660e01b815260040161130193929190612c35565b6020604051808303816000875af1158015611320573d6000803e3d6000fd5b505050506040513d601f19601f8201168201806040525081019061134491906126e4565b5080600560008282546113579190612711565b92505081905550600980549050600a60003373ffffffffffffffffffffffffffffffffffffffff1673ffffffffffffffffffffffffffffffffffffffff168152602001908152602001600020819055506009339080600181540180825580915050600190039060005260206000200160009091909190916101000a81548173ffffffffffffffffffffffffffffffffffffffff021916908373ffffffffffffffffffffffffffffffffffffffff1602179055506040518060c00160405280428152602001600454426114299190612711565b8152602001600860003373ffffffffffffffffffffffffffffffffffffffff1673ffffffffffffffffffffffffffffffffffffffff168152602001908152602001600020600201548361147c9190612711565b8152602001600860003373ffffffffffffffffffffffffffffffffffffffff1673ffffffffffffffffffffffffffffffffffffffff168152602001908152602001600020600301548152602001600860003373ffffffffffffffffffffffffffffffffffffffff1673ffffffffffffffffffffffffffffffffffffffff168152602001908152602001600020600401548152602001600860003373ffffffffffffffffffffffffffffffffffffffff1673ffffffffffffffffffffffffffffffffffffffff16815260200190815260200160002060050154815250600860003373ffffffffffffffffffffffffffffffffffffffff1673ffffffffffffffffffffffffffffffffffffffff168152602001908152602001600020600082015181600001556020820151816001015560408201518160020155606082015181600301556080820151816004015560a082015181600501559050503373ffffffffffffffffffffffffffffffffffffffff167f9e71bc8eea02a63969f509818f2dafb9254532904319f9dbda79b67bd34a5f3d8260405161161b919061209c565b60405180910390a250565b60086020528060005260406000206000915090508060000154908060010154908060020154908060030154908060040154908060050154905086565b600a6020528060005260406000206000915090505481565b61168261173c565b600073ffffffffffffffffffffffffffffffffffffffff168173ffffffffffffffffffffffffffffffffffffffff16036116f1576040517f08c379a00000000000000000000000000000000000000000000000000000000081526004016116e890612cde565b60405180910390fd5b6116fa816117ba565b50565b6009818154811061170d57600080fd5b906000526020600020016000915054906101000a900473ffffffffffffffffffffffffffffffffffffffff1681565b61174461207b565b73ffffffffffffffffffffffffffffffffffffffff16611762610cd9565b73ffffffffffffffffffffffffffffffffffffffff16146117b8576040517f08c379a00000000000000000000000000000000000000000000000000000000081526004016117af90612d4a565b60405180910390fd5b565b60008060009054906101000a900473ffffffffffffffffffffffffffffffffffffffff169050816000806101000a81548173ffffffffffffffffffffffffffffffffffffffff021916908373ffffffffffffffffffffffffffffffffffffffff1602179055508173ffffffffffffffffffffffffffffffffffffffff168173ffffffffffffffffffffffffffffffffffffffff167f8be0079c531659141344cd1fd0a4f28419497f9722a3daafe3b4186f6b6457e060405160405180910390a35050565b6000819050600080806000870361199f57600160009054906101000a900473ffffffffffffffffffffffffffffffffffffffff169150600360009054906101000a900473ffffffffffffffffffffffffffffffffffffffff169050600160009054906101000a900473ffffffffffffffffffffffffffffffffffffffff1673ffffffffffffffffffffffffffffffffffffffff1663095ea7b37f0000000000000000000000000000000000000000000000000000000000000000886040518363ffffffff1660e01b815260040161195692919061268f565b6020604051808303816000875af1158015611975573d6000803e3d6000fd5b505050506040513d601f19601f8201168201806040525081019061199991906126e4565b50611abd565b60018703611ab757600360009054906101000a900473ffffffffffffffffffffffffffffffffffffffff169150600160009054906101000a900473ffffffffffffffffffffffffffffffffffffffff169050600360009054906101000a900473ffffffffffffffffffffffffffffffffffffffff1673ffffffffffffffffffffffffffffffffffffffff1663095ea7b37f0000000000000000000000000000000000000000000000000000000000000000886040518363ffffffff1660e01b8152600401611a6e92919061268f565b6020604051808303816000875af1158015611a8d573d6000803e3d6000fd5b505050506040513d601f19601f82011682018060405250810190611ab191906126e4565b50611abc565b600080fd5b5b60006040518061010001604052808473ffffffffffffffffffffffffffffffffffffffff1681526020018373ffffffffffffffffffffffffffffffffffffffff168152602001610bb862ffffff1681526020013073ffffffffffffffffffffffffffffffffffffffff1681526020014281526020018881526020018681526020018573ffffffffffffffffffffffffffffffffffffffff16815250905060007f000000000000000000000000000000000000000000000000000000000000000073ffffffffffffffffffffffffffffffffffffffff1663414bf389836040518263ffffffff1660e01b8152600401611bb59190612e57565b6020604051808303816000875af1158015611bd4573d6000803e3d6000fd5b505050506040513d601f19601f82011682018060405250810190611bf891906128f5565b9050505050505050505050565b6000600267ffffffffffffffff811115611c2257611c21612e73565b5b604051908082528060200260200182016040528015611c505781602001602082028036833780820191505090505b5090506000839050600083905060008603611e0d57600160009054906101000a900473ffffffffffffffffffffffffffffffffffffffff1683600081518110611c9c57611c9b612745565b5b602002602001019073ffffffffffffffffffffffffffffffffffffffff16908173ffffffffffffffffffffffffffffffffffffffff1681525050600360009054906101000a900473ffffffffffffffffffffffffffffffffffffffff1683600181518110611d0d57611d0c612745565b5b602002602001019073ffffffffffffffffffffffffffffffffffffffff16908173ffffffffffffffffffffffffffffffffffffffff1681525050600160009054906101000a900473ffffffffffffffffffffffffffffffffffffffff1673ffffffffffffffffffffffffffffffffffffffff1663095ea7b37f0000000000000000000000000000000000000000000000000000000000000000846040518363ffffffff1660e01b8152600401611dc492919061268f565b6020604051808303816000875af1158015611de3573d6000803e3d6000fd5b505050506040513d601f19601f82011682018060405250810190611e0791906126e4565b50611fc3565b60018603611fbd57600360009054906101000a900473ffffffffffffffffffffffffffffffffffffffff1683600081518110611e4c57611e4b612745565b5b602002602001019073ffffffffffffffffffffffffffffffffffffffff16908173ffffffffffffffffffffffffffffffffffffffff1681525050600160009054906101000a900473ffffffffffffffffffffffffffffffffffffffff1683600181518110611ebd57611ebc612745565b5b602002602001019073ffffffffffffffffffffffffffffffffffffffff16908173ffffffffffffffffffffffffffffffffffffffff1681525050600360009054906101000a900473ffffffffffffffffffffffffffffffffffffffff1673ffffffffffffffffffffffffffffffffffffffff1663095ea7b37f0000000000000000000000000000000000000000000000000000000000000000846040518363ffffffff1660e01b8152600401611f7492919061268f565b6020604051808303816000875af1158015611f93573d6000803e3d6000fd5b505050506040513d601f19601f82011682018060405250810190611fb791906126e4565b50611fc2565b600080fd5b5b60004290507f000000000000000000000000000000000000000000000000000000000000000073ffffffffffffffffffffffffffffffffffffffff166338ed173984848730866040518663ffffffff1660e01b8152600401612029959493929190612f51565b6000604051808303816000875af1158015612048573d6000803e3d6000fd5b505050506040513d6000823e3d601f19601f8201168201806040525081019061207191906130d5565b5050505050505050565b600033905090565b6000819050919050565b61209681612083565b82525050565b60006020820190506120b1600083018461208d565b92915050565b6000604051905090565b600080fd5b600080fd5b6120d481612083565b81146120df57600080fd5b50565b6000813590506120f1816120cb565b92915050565b60006020828403121561210d5761210c6120c1565b5b600061211b848285016120e2565b91505092915050565b600073ffffffffffffffffffffffffffffffffffffffff82169050919050565b600061214f82612124565b9050919050565b61215f81612144565b811461216a57600080fd5b50565b60008135905061217c81612156565b92915050565b600060208284031215612198576121976120c1565b5b60006121a68482850161216d565b91505092915050565b60008115159050919050565b6121c4816121af565b82525050565b60006020820190506121df60008301846121bb565b92915050565b6000819050919050565b600061220a61220561220084612124565b6121e5565b612124565b9050919050565b600061221c826121ef565b9050919050565b600061222e82612211565b9050919050565b61223e81612223565b82525050565b60006020820190506122596000830184612235565b92915050565b61226881612144565b82525050565b6000602082019050612283600083018461225f565b92915050565b600061229482612211565b9050919050565b6122a481612289565b82525050565b60006020820190506122bf600083018461229b565b92915050565b60006122d082612211565b9050919050565b6122e0816122c5565b82525050565b60006020820190506122fb60008301846122d7565b92915050565b6002811061230e57600080fd5b50565b60008135905061232081612301565b92915050565b600080600080600080600060e0888a031215612345576123446120c1565b5b60006123538a828b01612311565b97505060206123648a828b0161216d565b96505060406123758a828b0161216d565b95505060606123868a828b016120e2565b94505060806123978a828b016120e2565b93505060a06123a88a828b016120e2565b92505060c06123b98a828b016120e2565b91505092959891949750929550565b60006123d382612211565b9050919050565b6123e3816123c8565b82525050565b60006020820190506123fe60008301846123da565b92915050565b600060c082019050612419600083018961208d565b612426602083018861208d565b612433604083018761208d565b612440606083018661208d565b61244d608083018561208d565b61245a60a083018461208d565b979650505050505050565b600082825260208201905092915050565b7f596f7520646f6e2774206861766520616e79207374616b656420746f6b656e7360008201527f2e00000000000000000000000000000000000000000000000000000000000000602082015250565b60006124d2602183612465565b91506124dd82612476565b604082019050919050565b60006020820190508181036000830152612501816124c5565b9050919050565b7f596f752063616e6e6f742079657420776974686472617720796f75722073746160008201527f6b656420746f6b656e732e000000000000000000000000000000000000000000602082015250565b6000612564602b83612465565b915061256f82612508565b604082019050919050565b6000602082019050818103600083015261259381612557565b9050919050565b7f4e487b7100000000000000000000000000000000000000000000000000000000600052601160045260246000fd5b60006125d482612083565b91506125df83612083565b92508282039050818111156125f7576125f661259a565b5b92915050565b7f596f752061726520747279696e6720746f207769746864726177206d6f72652060008201527f7468616e20796f752068617665207374616b65642e0000000000000000000000602082015250565b6000612659603583612465565b9150612664826125fd565b604082019050919050565b600060208201905081810360008301526126888161264c565b9050919050565b60006040820190506126a4600083018561225f565b6126b1602083018461208d565b9392505050565b6126c1816121af565b81146126cc57600080fd5b50565b6000815190506126de816126b8565b92915050565b6000602082840312156126fa576126f96120c1565b5b6000612708848285016126cf565b91505092915050565b600061271c82612083565b915061272783612083565b925082820190508082111561273f5761273e61259a565b5b92915050565b7f4e487b7100000000000000000000000000000000000000000000000000000000600052603260045260246000fd5b600061277f82612083565b91507fffffffffffffffffffffffffffffffffffffffffffffffffffffffffffffffff82036127b1576127b061259a565b5b600182019050919050565b7f596f75206861766520616c726561647920636c61696d6564207468652066617560008201527f6365742e00000000000000000000000000000000000000000000000000000000602082015250565b6000612818602483612465565b9150612823826127bc565b604082019050919050565b600060208201905081810360008301526128478161280b565b9050919050565b7f596f7520646f6e2774206861766520616e792070726f6669747320746f20636c60008201527f61696d2e00000000000000000000000000000000000000000000000000000000602082015250565b60006128aa602483612465565b91506128b58261284e565b604082019050919050565b600060208201905081810360008301526128d98161289d565b9050919050565b6000815190506128ef816120cb565b92915050565b60006020828403121561290b5761290a6120c1565b5b6000612919848285016128e0565b91505092915050565b7f4e487b7100000000000000000000000000000000000000000000000000000000600052602160045260246000fd5b7f444558206e6f74207265636f676e697a65640000000000000000000000000000600082015250565b6000612987601283612465565b915061299282612951565b602082019050919050565b600060208201905081810360008301526129b68161297a565b9050919050565b7f4e6f7420656e6f7567682070726f666974730000000000000000000000000000600082015250565b60006129f3601283612465565b91506129fe826129bd565b602082019050919050565b60006020820190508181036000830152612a22816129e6565b9050919050565b7f4e487b7100000000000000000000000000000000000000000000000000000000600052601260045260246000fd5b6000612a6382612083565b9150612a6e83612083565b925082612a7e57612a7d612a29565b5b828204905092915050565b6000612a9482612083565b9150612a9f83612083565b9250828202612aad81612083565b91508282048414831517612ac457612ac361259a565b5b5092915050565b7f5374616b6520616d6f756e742073686f756c64206265206d6f7265207468616e60008201527f207a65726f000000000000000000000000000000000000000000000000000000602082015250565b6000612b27602583612465565b9150612b3282612acb565b604082019050919050565b60006020820190508181036000830152612b5681612b1a565b9050919050565b7f596f75206861766520616c7265616479207374616b656420746f6b656e730000600082015250565b6000612b93601e83612465565b9150612b9e82612b5d565b602082019050919050565b60006020820190508181036000830152612bc281612b86565b9050919050565b7f496e73756666696369656e742062616c616e6365000000000000000000000000600082015250565b6000612bff601483612465565b9150612c0a82612bc9565b602082019050919050565b60006020820190508181036000830152612c2e81612bf2565b9050919050565b6000606082019050612c4a600083018661225f565b612c57602083018561225f565b612c64604083018461208d565b949350505050565b7f4f776e61626c653a206e6577206f776e657220697320746865207a65726f206160008201527f6464726573730000000000000000000000000000000000000000000000000000602082015250565b6000612cc8602683612465565b9150612cd382612c6c565b604082019050919050565b60006020820190508181036000830152612cf781612cbb565b9050919050565b7f4f776e61626c653a2063616c6c6572206973206e6f7420746865206f776e6572600082015250565b6000612d34602083612465565b9150612d3f82612cfe565b602082019050919050565b60006020820190508181036000830152612d6381612d27565b9050919050565b612d7381612144565b82525050565b600062ffffff82169050919050565b612d9181612d79565b82525050565b612da081612083565b82525050565b612daf81612124565b82525050565b61010082016000820151612dcc6000850182612d6a565b506020820151612ddf6020850182612d6a565b506040820151612df26040850182612d88565b506060820151612e056060850182612d6a565b506080820151612e186080850182612d97565b5060a0820151612e2b60a0850182612d97565b5060c0820151612e3e60c0850182612d97565b5060e0820151612e5160e0850182612da6565b50505050565b600061010082019050612e6d6000830184612db5565b92915050565b7f4e487b7100000000000000000000000000000000000000000000000000000000600052604160045260246000fd5b600081519050919050565b600082825260208201905092915050565b6000819050602082019050919050565b6000612eda8383612d6a565b60208301905092915050565b6000602082019050919050565b6000612efe82612ea2565b612f088185612ead565b9350612f1383612ebe565b8060005b83811015612f44578151612f2b8882612ece565b9750612f3683612ee6565b925050600181019050612f17565b5085935050505092915050565b600060a082019050612f66600083018861208d565b612f73602083018761208d565b8181036040830152612f858186612ef3565b9050612f94606083018561225f565b612fa1608083018461208d565b9695505050505050565b600080fd5b6000601f19601f8301169050919050565b612fca82612fb0565b810181811067ffffffffffffffff82111715612fe957612fe8612e73565b5b80604052505050565b6000612ffc6120b7565b90506130088282612fc1565b919050565b600067ffffffffffffffff82111561302857613027612e73565b5b602082029050602081019050919050565b600080fd5b600061305161304c8461300d565b612ff2565b9050808382526020820190506020840283018581111561307457613073613039565b5b835b8181101561309d578061308988826128e0565b845260208401935050602081019050613076565b5050509392505050565b600082601f8301126130bc576130bb612fab565b5b81516130cc84826020860161303e565b91505092915050565b6000602082840312156130eb576130ea6120c1565b5b600082015167ffffffffffffffff811115613109576131086120c6565b5b613115848285016130a7565b9150509291505056fea26469706673582212200eb7359ff66c1adbec4ba7ce77e8cc1ee28a104127862e7bbaf6bc48830c23d564736f6c63430008110033",
  "linkReferences": {},
  "deployedLinkReferences": {}
}