{
  "_format": "hh-sol-artifact-1",
  "contractName": "Arbitrage",
  "sourceName": "contracts/Arbitrage.sol",
  "abi": [
    {
      "inputs": [
        {
          "internalType": "address",
          "name": "_faucetToken",
          "type": "address"
        },
        {
          "internalType": "uint256",
          "name": "_faucetAmount",
          "type": "uint256"
        },
        {
          "internalType": "uint256",
          "name": "_faucetLockTime",
          "type": "uint256"
        },
        {
          "internalType": "address",
          "name": "_stakedToken",
          "type": "address"
        },
        {
          "internalType": "uint256",
          "name": "_stakeLockTime",
          "type": "uint256"
        },
        {
          "internalType": "address",
          "name": "_sushiRouter",
          "type": "address"
        },
        {
          "internalType": "address",
          "name": "_uniRouter",
          "type": "address"
        }
      ],
      "stateMutability": "nonpayable",
      "type": "constructor"
    },
    {
      "anonymous": false,
      "inputs": [
        {
          "indexed": true,
          "internalType": "address",
          "name": "_from",
          "type": "address"
        },
        {
          "indexed": false,
          "internalType": "uint256",
          "name": "amount",
          "type": "uint256"
        }
      ],
      "name": "Claimed",
      "type": "event"
    },
    {
      "anonymous": false,
      "inputs": [
        {
          "indexed": true,
          "internalType": "address",
          "name": "previousOwner",
          "type": "address"
        },
        {
          "indexed": true,
          "internalType": "address",
          "name": "newOwner",
          "type": "address"
        }
      ],
      "name": "OwnershipTransferred",
      "type": "event"
    },
    {
      "anonymous": false,
      "inputs": [
        {
          "indexed": true,
          "internalType": "address",
          "name": "_from",
          "type": "address"
        },
        {
          "indexed": false,
          "internalType": "uint256",
          "name": "amount",
          "type": "uint256"
        }
      ],
      "name": "Staked",
      "type": "event"
    },
    {
      "anonymous": false,
      "inputs": [
        {
          "indexed": true,
          "internalType": "address",
          "name": "_from",
          "type": "address"
        },
        {
          "indexed": false,
          "internalType": "uint256",
          "name": "amount",
          "type": "uint256"
        }
      ],
      "name": "Withdrawn",
      "type": "event"
    },
    {
      "inputs": [
        {
          "internalType": "address",
          "name": "",
          "type": "address"
        }
      ],
      "name": "addressInStake",
      "outputs": [
        {
          "internalType": "bool",
          "name": "",
          "type": "bool"
        }
      ],
      "stateMutability": "view",
      "type": "function"
    },
    {
      "inputs": [],
      "name": "claimArbitrageProfits",
      "outputs": [],
      "stateMutability": "nonpayable",
      "type": "function"
    },
    {
      "inputs": [],
      "name": "faucetAmount",
      "outputs": [
        {
          "internalType": "uint256",
          "name": "",
          "type": "uint256"
        }
      ],
      "stateMutability": "view",
      "type": "function"
    },
    {
      "inputs": [],
      "name": "faucetLockTime",
      "outputs": [
        {
          "internalType": "uint256",
          "name": "",
          "type": "uint256"
        }
      ],
      "stateMutability": "view",
      "type": "function"
    },
    {
      "inputs": [],
      "name": "faucetToken",
      "outputs": [
        {
          "internalType": "contract IFaucetToken",
          "name": "",
          "type": "address"
        }
      ],
      "stateMutability": "view",
      "type": "function"
    },
    {
      "inputs": [
        {
          "internalType": "address",
          "name": "",
          "type": "address"
        }
      ],
      "name": "lockTime",
      "outputs": [
        {
          "internalType": "uint256",
          "name": "",
          "type": "uint256"
        }
      ],
      "stateMutability": "view",
      "type": "function"
    },
    {
      "inputs": [],
      "name": "owner",
      "outputs": [
        {
          "internalType": "address",
          "name": "",
          "type": "address"
        }
      ],
      "stateMutability": "view",
      "type": "function"
    },
    {
      "inputs": [
        {
          "internalType": "enum Arbitrage.Dex",
          "name": "_sellAt",
          "type": "uint8"
        },
        {
          "internalType": "address",
          "name": "_tokenToSell",
          "type": "address"
        },
        {
          "internalType": "address",
          "name": "_tokenToBuy",
          "type": "address"
        },
        {
          "internalType": "uint256",
          "name": "_amount",
          "type": "uint256"
        }
      ],
      "name": "performArbitrage",
      "outputs": [],
      "stateMutability": "nonpayable",
      "type": "function"
    },
    {
      "inputs": [],
      "name": "renounceOwnership",
      "outputs": [],
      "stateMutability": "nonpayable",
      "type": "function"
    },
    {
      "inputs": [],
      "name": "requestTokens",
      "outputs": [],
      "stateMutability": "nonpayable",
      "type": "function"
    },
    {
      "inputs": [
        {
          "internalType": "address",
          "name": "",
          "type": "address"
        }
      ],
      "name": "stakeInfos",
      "outputs": [
        {
          "internalType": "uint256",
          "name": "startTS",
          "type": "uint256"
        },
        {
          "internalType": "uint256",
          "name": "endTS",
          "type": "uint256"
        },
        {
          "internalType": "uint256",
          "name": "amount",
          "type": "uint256"
        },
        {
          "internalType": "uint256",
          "name": "profit",
          "type": "uint256"
        },
        {
          "internalType": "uint256",
          "name": "claimed",
          "type": "uint256"
        },
        {
          "internalType": "uint256",
          "name": "withdrawn",
          "type": "uint256"
        }
      ],
      "stateMutability": "view",
      "type": "function"
    },
    {
      "inputs": [],
      "name": "stakeLockTime",
      "outputs": [
        {
          "internalType": "uint256",
          "name": "",
          "type": "uint256"
        }
      ],
      "stateMutability": "view",
      "type": "function"
    },
    {
      "inputs": [
        {
          "internalType": "uint256",
          "name": "amount",
          "type": "uint256"
        }
      ],
      "name": "stakeToken",
      "outputs": [],
      "stateMutability": "nonpayable",
      "type": "function"
    },
    {
      "inputs": [],
      "name": "stakedToken",
      "outputs": [
        {
          "internalType": "contract IStakedToken",
          "name": "",
          "type": "address"
        }
      ],
      "stateMutability": "view",
      "type": "function"
    },
    {
      "inputs": [],
      "name": "sushiRouter",
      "outputs": [
        {
          "internalType": "contract IUniswapV2Router02",
          "name": "",
          "type": "address"
        }
      ],
      "stateMutability": "view",
      "type": "function"
    },
    {
      "inputs": [],
      "name": "totalProfits",
      "outputs": [
        {
          "internalType": "uint256",
          "name": "",
          "type": "uint256"
        }
      ],
      "stateMutability": "view",
      "type": "function"
    },
    {
      "inputs": [],
      "name": "totalStaked",
      "outputs": [
        {
          "internalType": "uint256",
          "name": "",
          "type": "uint256"
        }
      ],
      "stateMutability": "view",
      "type": "function"
    },
    {
      "inputs": [
        {
          "internalType": "address",
          "name": "newOwner",
          "type": "address"
        }
      ],
      "name": "transferOwnership",
      "outputs": [],
      "stateMutability": "nonpayable",
      "type": "function"
    },
    {
      "inputs": [],
      "name": "uniRouter",
      "outputs": [
        {
          "internalType": "contract ISwapRouter",
          "name": "",
          "type": "address"
        }
      ],
      "stateMutability": "view",
      "type": "function"
    },
    {
      "inputs": [
        {
          "internalType": "uint256",
          "name": "amount",
          "type": "uint256"
        }
      ],
      "name": "withdrawStake",
      "outputs": [],
      "stateMutability": "nonpayable",
      "type": "function"
    }
  ],
  "bytecode": "0x60c06040523480156200001157600080fd5b5060405162001e1138038062001e118339818101604052810190620000379190620002d4565b620000576200004b6200016360201b60201c565b6200016b60201b60201c565b86600160006101000a81548173ffffffffffffffffffffffffffffffffffffffff021916908373ffffffffffffffffffffffffffffffffffffffff160217905550856002819055508460038190555083600460006101000a81548173ffffffffffffffffffffffffffffffffffffffff021916908373ffffffffffffffffffffffffffffffffffffffff160217905550826005819055508173ffffffffffffffffffffffffffffffffffffffff1660808173ffffffffffffffffffffffffffffffffffffffff16815250508073ffffffffffffffffffffffffffffffffffffffff1660a08173ffffffffffffffffffffffffffffffffffffffff16815250505050505050505062000387565b600033905090565b60008060009054906101000a900473ffffffffffffffffffffffffffffffffffffffff169050816000806101000a81548173ffffffffffffffffffffffffffffffffffffffff021916908373ffffffffffffffffffffffffffffffffffffffff1602179055508173ffffffffffffffffffffffffffffffffffffffff168173ffffffffffffffffffffffffffffffffffffffff167f8be0079c531659141344cd1fd0a4f28419497f9722a3daafe3b4186f6b6457e060405160405180910390a35050565b600080fd5b600073ffffffffffffffffffffffffffffffffffffffff82169050919050565b6000620002618262000234565b9050919050565b620002738162000254565b81146200027f57600080fd5b50565b600081519050620002938162000268565b92915050565b6000819050919050565b620002ae8162000299565b8114620002ba57600080fd5b50565b600081519050620002ce81620002a3565b92915050565b600080600080600080600060e0888a031215620002f657620002f56200022f565b5b6000620003068a828b0162000282565b9750506020620003198a828b01620002bd565b96505060406200032c8a828b01620002bd565b95505060606200033f8a828b0162000282565b9450506080620003528a828b01620002bd565b93505060a0620003658a828b0162000282565b92505060c0620003788a828b0162000282565b91505092959891949750929550565b60805160a051611a64620003ad60003960006109990152600061092c0152611a646000f3fe608060405234801561001057600080fd5b50600436106100fc5760003560e01c806318fe311614610101578063246a1a451461011f57806325d5971f1461013d578063359cf2b7146101595780633930f0d1146101635780635d7628141461017f5780636d13582c14610189578063715018a6146101a7578063817b1cd2146101b15780638da5cb5b146101cf5780639c281430146101ed578063a0e47bf61461020b578063a4beda6314610229578063b7b524a114610259578063bd998cb314610277578063cc7a262e14610295578063cda6b847146102b3578063dfbf9def146102cf578063ed5c660514610304578063f2fde38b14610334575b600080fd5b610109610350565b6040516101169190611023565b60405180910390f35b610127610356565b6040516101349190611023565b60405180910390f35b6101576004803603810190610152919061106f565b61035c565b005b6101616105fc565b005b61017d6004803603810190610178919061111f565b610761565b005b610187610767565b005b61019161092a565b60405161019e91906111e5565b60405180910390f35b6101af61094e565b005b6101b9610962565b6040516101c69190611023565b60405180910390f35b6101d7610968565b6040516101e4919061120f565b60405180910390f35b6101f5610991565b6040516102029190611023565b60405180910390f35b610213610997565b604051610220919061124b565b60405180910390f35b610243600480360381019061023e9190611266565b6109bb565b6040516102509190611023565b60405180910390f35b6102616109d3565b60405161026e91906112b4565b60405180910390f35b61027f6109f9565b60405161028c9190611023565b60405180910390f35b61029d6109ff565b6040516102aa91906112f0565b60405180910390f35b6102cd60048036038101906102c8919061106f565b610a25565b005b6102e960048036038101906102e49190611266565b610de1565b6040516102fb9695949392919061130b565b60405180910390f35b61031e60048036038101906103199190611266565b610e1d565b60405161032b9190611387565b60405180910390f35b61034e60048036038101906103499190611266565b610e3d565b005b60035481565b60055481565b60011515600a60003373ffffffffffffffffffffffffffffffffffffffff1673ffffffffffffffffffffffffffffffffffffffff16815260200190815260200160002060009054906101000a900460ff161515146103ef576040517f08c379a00000000000000000000000000000000000000000000000000000000081526004016103e690611425565b60405180910390fd5b600960003373ffffffffffffffffffffffffffffffffffffffff1673ffffffffffffffffffffffffffffffffffffffff168152602001908152602001600020600101544211610473576040517f08c379a000000000000000000000000000000000000000000000000000000000815260040161046a906114b7565b60405180910390fd5b600960003373ffffffffffffffffffffffffffffffffffffffff1673ffffffffffffffffffffffffffffffffffffffff168152602001908152602001600020600201548111156104f8576040517f08c379a00000000000000000000000000000000000000000000000000000000081526004016104ef90611549565b60405180910390fd5b600460009054906101000a900473ffffffffffffffffffffffffffffffffffffffff1673ffffffffffffffffffffffffffffffffffffffff1663a9059cbb33836040518363ffffffff1660e01b8152600401610555929190611569565b600060405180830381600087803b15801561056f57600080fd5b505af1158015610583573d6000803e3d6000fd5b5050505080600960003373ffffffffffffffffffffffffffffffffffffffff1673ffffffffffffffffffffffffffffffffffffffff16815260200190815260200160002060050160008282546105d991906115c1565b9250508190555080600660008282546105f291906115f5565b9250508190555050565b600860003373ffffffffffffffffffffffffffffffffffffffff1673ffffffffffffffffffffffffffffffffffffffff16815260200190815260200160002054421161067d576040517f08c379a00000000000000000000000000000000000000000000000000000000081526004016106749061169b565b60405180910390fd5b600160009054906101000a900473ffffffffffffffffffffffffffffffffffffffff1673ffffffffffffffffffffffffffffffffffffffff166340c10f19336002546040518363ffffffff1660e01b81526004016106dc929190611569565b600060405180830381600087803b1580156106f657600080fd5b505af115801561070a573d6000803e3d6000fd5b505050506003544261071c91906115c1565b600860003373ffffffffffffffffffffffffffffffffffffffff1673ffffffffffffffffffffffffffffffffffffffff16815260200190815260200160002081905550565b50505050565b6000600960003373ffffffffffffffffffffffffffffffffffffffff1673ffffffffffffffffffffffffffffffffffffffff168152602001908152602001600020600301549050600081116107f1576040517f08c379a00000000000000000000000000000000000000000000000000000000081526004016107e89061172d565b60405180910390fd5b600460009054906101000a900473ffffffffffffffffffffffffffffffffffffffff1673ffffffffffffffffffffffffffffffffffffffff1663a9059cbb33836040518363ffffffff1660e01b815260040161084e929190611569565b600060405180830381600087803b15801561086857600080fd5b505af115801561087c573d6000803e3d6000fd5b5050505080600960003373ffffffffffffffffffffffffffffffffffffffff1673ffffffffffffffffffffffffffffffffffffffff16815260200190815260200160002060040160008282546108d291906115f5565b925050819055503373ffffffffffffffffffffffffffffffffffffffff167fd8138f8a3f377c5259ca548e70e4c2de94f129f5a11036a15b69513cba2b426a8260405161091f9190611023565b60405180910390a250565b7f000000000000000000000000000000000000000000000000000000000000000081565b610956610ec0565b6109606000610f3e565b565b60065481565b60008060009054906101000a900473ffffffffffffffffffffffffffffffffffffffff16905090565b60025481565b7f000000000000000000000000000000000000000000000000000000000000000081565b60086020528060005260406000206000915090505481565b600160009054906101000a900473ffffffffffffffffffffffffffffffffffffffff1681565b60075481565b600460009054906101000a900473ffffffffffffffffffffffffffffffffffffffff1681565b60008111610a68576040517f08c379a0000000000000000000000000000000000000000000000000000000008152600401610a5f906117bf565b60405180910390fd5b60001515600a60003373ffffffffffffffffffffffffffffffffffffffff1673ffffffffffffffffffffffffffffffffffffffff16815260200190815260200160002060009054906101000a900460ff16151514610afb576040517f08c379a0000000000000000000000000000000000000000000000000000000008152600401610af29061182b565b60405180910390fd5b80600460009054906101000a900473ffffffffffffffffffffffffffffffffffffffff1673ffffffffffffffffffffffffffffffffffffffff166370a08231336040518263ffffffff1660e01b8152600401610b57919061120f565b6020604051808303816000875af1158015610b76573d6000803e3d6000fd5b505050506040513d601f19601f82011682018060405250810190610b9a9190611860565b1015610bdb576040517f08c379a0000000000000000000000000000000000000000000000000000000008152600401610bd2906118d9565b60405180910390fd5b600460009054906101000a900473ffffffffffffffffffffffffffffffffffffffff1673ffffffffffffffffffffffffffffffffffffffff166323b872dd3330846040518463ffffffff1660e01b8152600401610c3a939291906118f9565b600060405180830381600087803b158015610c5457600080fd5b505af1158015610c68573d6000803e3d6000fd5b505050508060066000828254610c7e91906115c1565b9250508190555060011515600a60003373ffffffffffffffffffffffffffffffffffffffff1673ffffffffffffffffffffffffffffffffffffffff16815260200190815260200160002060009054906101000a905050506040518060c0016040528042815260200160055442610cf491906115c1565b815260200182815260200160008152602001600081526020016000815250600960003373ffffffffffffffffffffffffffffffffffffffff1673ffffffffffffffffffffffffffffffffffffffff168152602001908152602001600020600082015181600001556020820151816001015560408201518160020155606082015181600301556080820151816004015560a082015181600501559050503373ffffffffffffffffffffffffffffffffffffffff167f9e71bc8eea02a63969f509818f2dafb9254532904319f9dbda79b67bd34a5f3d82604051610dd69190611023565b60405180910390a250565b60096020528060005260406000206000915090508060000154908060010154908060020154908060030154908060040154908060050154905086565b600a6020528060005260406000206000915054906101000a900460ff1681565b610e45610ec0565b600073ffffffffffffffffffffffffffffffffffffffff168173ffffffffffffffffffffffffffffffffffffffff1603610eb4576040517f08c379a0000000000000000000000000000000000000000000000000000000008152600401610eab906119a2565b60405180910390fd5b610ebd81610f3e565b50565b610ec8611002565b73ffffffffffffffffffffffffffffffffffffffff16610ee6610968565b73ffffffffffffffffffffffffffffffffffffffff1614610f3c576040517f08c379a0000000000000000000000000000000000000000000000000000000008152600401610f3390611a0e565b60405180910390fd5b565b60008060009054906101000a900473ffffffffffffffffffffffffffffffffffffffff169050816000806101000a81548173ffffffffffffffffffffffffffffffffffffffff021916908373ffffffffffffffffffffffffffffffffffffffff1602179055508173ffffffffffffffffffffffffffffffffffffffff168173ffffffffffffffffffffffffffffffffffffffff167f8be0079c531659141344cd1fd0a4f28419497f9722a3daafe3b4186f6b6457e060405160405180910390a35050565b600033905090565b6000819050919050565b61101d8161100a565b82525050565b60006020820190506110386000830184611014565b92915050565b600080fd5b61104c8161100a565b811461105757600080fd5b50565b60008135905061106981611043565b92915050565b6000602082840312156110855761108461103e565b5b60006110938482850161105a565b91505092915050565b600281106110a957600080fd5b50565b6000813590506110bb8161109c565b92915050565b600073ffffffffffffffffffffffffffffffffffffffff82169050919050565b60006110ec826110c1565b9050919050565b6110fc816110e1565b811461110757600080fd5b50565b600081359050611119816110f3565b92915050565b600080600080608085870312156111395761113861103e565b5b6000611147878288016110ac565b94505060206111588782880161110a565b93505060406111698782880161110a565b925050606061117a8782880161105a565b91505092959194509250565b6000819050919050565b60006111ab6111a66111a1846110c1565b611186565b6110c1565b9050919050565b60006111bd82611190565b9050919050565b60006111cf826111b2565b9050919050565b6111df816111c4565b82525050565b60006020820190506111fa60008301846111d6565b92915050565b611209816110e1565b82525050565b60006020820190506112246000830184611200565b92915050565b6000611235826111b2565b9050919050565b6112458161122a565b82525050565b6000602082019050611260600083018461123c565b92915050565b60006020828403121561127c5761127b61103e565b5b600061128a8482850161110a565b91505092915050565b600061129e826111b2565b9050919050565b6112ae81611293565b82525050565b60006020820190506112c960008301846112a5565b92915050565b60006112da826111b2565b9050919050565b6112ea816112cf565b82525050565b600060208201905061130560008301846112e1565b92915050565b600060c0820190506113206000830189611014565b61132d6020830188611014565b61133a6040830187611014565b6113476060830186611014565b6113546080830185611014565b61136160a0830184611014565b979650505050505050565b60008115159050919050565b6113818161136c565b82525050565b600060208201905061139c6000830184611378565b92915050565b600082825260208201905092915050565b7f596f7520646f6e2774206861766520616e79207374616b656420746f6b656e7360008201527f2e00000000000000000000000000000000000000000000000000000000000000602082015250565b600061140f6021836113a2565b915061141a826113b3565b604082019050919050565b6000602082019050818103600083015261143e81611402565b9050919050565b7f596f752063616e6e6f742079657420776974686472617720796f75722073746160008201527f6b656420746f6b656e732e000000000000000000000000000000000000000000602082015250565b60006114a1602b836113a2565b91506114ac82611445565b604082019050919050565b600060208201905081810360008301526114d081611494565b9050919050565b7f596f752061726520747279696e6720746f207769746864726177206d6f72652060008201527f7468616e20796f752068617665207374616b65642e0000000000000000000000602082015250565b60006115336035836113a2565b915061153e826114d7565b604082019050919050565b6000602082019050818103600083015261156281611526565b9050919050565b600060408201905061157e6000830185611200565b61158b6020830184611014565b9392505050565b7f4e487b7100000000000000000000000000000000000000000000000000000000600052601160045260246000fd5b60006115cc8261100a565b91506115d78361100a565b92508282019050808211156115ef576115ee611592565b5b92915050565b60006116008261100a565b915061160b8361100a565b925082820390508181111561162357611622611592565b5b92915050565b7f466175636574206c6f636b2074696d6520686173206e6f74206578706972656460008201527f2e20506c656173652074727920616761696e206c617465722e00000000000000602082015250565b60006116856039836113a2565b915061169082611629565b604082019050919050565b600060208201905081810360008301526116b481611678565b9050919050565b7f596f7520646f6e2774206861766520616e792070726f6669747320746f20636c60008201527f61696d2e00000000000000000000000000000000000000000000000000000000602082015250565b60006117176024836113a2565b9150611722826116bb565b604082019050919050565b600060208201905081810360008301526117468161170a565b9050919050565b7f5374616b6520616d6f756e742073686f756c64206265206d6f7265207468616e60008201527f207a65726f000000000000000000000000000000000000000000000000000000602082015250565b60006117a96025836113a2565b91506117b48261174d565b604082019050919050565b600060208201905081810360008301526117d88161179c565b9050919050565b7f596f75206861766520616c7265616479207374616b656420746f6b656e730000600082015250565b6000611815601e836113a2565b9150611820826117df565b602082019050919050565b6000602082019050818103600083015261184481611808565b9050919050565b60008151905061185a81611043565b92915050565b6000602082840312156118765761187561103e565b5b60006118848482850161184b565b91505092915050565b7f496e73756666696369656e742062616c616e6365000000000000000000000000600082015250565b60006118c36014836113a2565b91506118ce8261188d565b602082019050919050565b600060208201905081810360008301526118f2816118b6565b9050919050565b600060608201905061190e6000830186611200565b61191b6020830185611200565b6119286040830184611014565b949350505050565b7f4f776e61626c653a206e6577206f776e657220697320746865207a65726f206160008201527f6464726573730000000000000000000000000000000000000000000000000000602082015250565b600061198c6026836113a2565b915061199782611930565b604082019050919050565b600060208201905081810360008301526119bb8161197f565b9050919050565b7f4f776e61626c653a2063616c6c6572206973206e6f7420746865206f776e6572600082015250565b60006119f86020836113a2565b9150611a03826119c2565b602082019050919050565b60006020820190508181036000830152611a27816119eb565b905091905056fea264697066735822122063943e2dbb53f1bec0deb5bb84c486f70f2c7040c508eaa21c936db0dd59933664736f6c63430008110033",
  "linkReferences": {},
  "deployedLinkReferences": {}
}